:020000020000FC
:100000000C94000131D048D02FD046D02DD044D010
:100010002BD042D029D040D027D03ED025D03CD0C4
:1000200023D03AD021D038D01FD036D01DD034D0F4
:100030001BD032D019D030D017D02ED015D02CD024
:1000400013D02AD011D028D00FD026D00DD024D054
:100050000BD022D009D020D007D01ED005D01CD084
:1000600003D01AD001D018D04A924FB64A92EA93E0
:10007000FA93FF91EF91EE0FFF1F45904F9245903D
:100080004F92F991E99149904FBE49900C947200BA
:1000900000000449535230000E9453050E94680238
:1000A0000E9468020E946E030E9482020E948202E5
:1000B0000E9436060E9436060E94F9050E945108E9
:1000C0000E94F9050E9481040E9436060E941306D0
:1000D0000A20494E20535441434B21001895920069
:0A00E000034442470E947402189581
:100100000E110000100000000000000000000007B9
:10011000640F000044169C1640014416006F816F66
:10020000A4B6BB242224332424BEA0EFADBFB7E0A4
:10021000BEBFC0EFD6E00C949D08E000043F4B4504
:1002200059009A938A9388279927C101A091C00009
:10023000A7FF08958091C6009A938A938FEF9FEF4E
:1002400008951C0204454D495400A091C000A5FF2B
:10025000FCCF8093C600899199910895A3E3A09360
:10026000C400AA27A093C500A8E1A093C100A6E0FE
:10027000A093C20008959A938A93FF91EF91EE0F95
:10028000FF1F85919591F795E795EF93FF9308955B
:10029000FF91EF91BF91AF91119724F43196EF93B5
:1002A000FF930895AF93BF93EE0FFF1FA591B591F4
:1002B000AF93BF930895FF91EF91892B8991999105
:1002C00031F03196EF93FF930895FF91EF91EE0F88
:1002D000FF1FA591B591AF93BF93089544020745C1
:1002E000584543555445959587958F939F9389918C
:1002F00099910895DE02044558495400BF91AF9189
:100300000895F6020121FC018991999191838083DE
:1003100089919991089504030140FC018191919183
:100320000895180302494000A6DF1C0135D0C3DF41
:10033000A201A1DF1E0130D0BEDFA501FC01859125
:100340009591089598DF1C0102C095DF1E012BD006
:10035000E4CF2403034943408EDF1C011DD0ABDFF3
:10036000BA0189DF1E0118D0A6DFBD01FC01992763
:100370008491089580DF1C0102C07DDF1E0113D02F
:10038000A0C079DF0100FAD096DFC90174DF8008D0
:10039000089571DF00080895C0DFE0D0FFD06BDF63
:1003A000807FECD00895B9DFECDFCED064DF7F0032
:1003B000E5D0F4C05403024921005DDF1C01ECDFED
:1003C0007ADFF30158DF1E01E7DF75DFF20153DF4B
:1003D0001E01A3DF50DF0080D1D06DDFF00104D01B
:1003E00012D01CD02AD035C046DF1E0196DFA5D022
:1003F00042DF807FC3D0A1D00E94D03FA5D0C1DF13
:10040000A3D00C94D73F37DF1E0187DFBADFA6D019
:1004100032DF807FB3D098D00C94EB3F8ED02BDFAF
:10042000807FACD028DF1E018FD098D076DF23DF0D
:100430000100A4D0ABD088D066CF1DDF1E016DDFD8
:100440001ADF1C016ADF17DF1E015DDF14DF1C01EC
:100450005ACF11DF7E0092D00EDF1C015EDF91DFEC
:1004600095D051DF08DF1C0168D057DF04DF008022
:100470008DD06AD048CFB60305464C55534803D0BB
:10048000DCDF01D0DACFF7DE1E0147DF56D0F3DE26
:10049000008074D010DF5302EEDEFF7F6FD0EBDE02
:1004A0001E0131DFA1CF43C0780402432100FC01CB
:1004B000899199918083899199910895AA04024321
:1004C0004000FC01992780810895BE0442523E00FD
:1004D0009A938A93BF91AF919F918F91AF93BF935E
:1004E0000895CC04025240009A938A93BF91AF9131
:1004F0009F918F918F939F93AF93BF930895E4043F
:10050000423E5200BF91AF918F939F93AF93BF93A1
:100510008991999108959A938A93CE010895EC0157
:1005200089919991089500050444524F5000899192
:10053000999108952805034455509A938A930895F4
:100540003605045357415000DC0189919991BA93C3
:10055000AA9308954205044F564552009A938A93F0
:100560008A819B810895560502303C009923C10180
:100570000CF401970895680503414E44A991B9917F
:100580008A239B2308957805024F5200A991B991BF
:100590008A2B9B2B0895880503584F52A991B99136
:1005A0008A279B270895980503554D2BA991B9914A
:1005B0008A0F9B1F9A938A9399278827881F0895EB
:1005C0009A938A93FF91EF91EE0FFF1F859195917A
:1005D0000895A8050527424F4F54F2DF0001D405C6
:1005E000044241534500ECDF0401E00503544D5043
:1005F000E7DF0601EC05045350414E00E1DF08013E
:10060000F605033E494EDCDF0A0102060423544985
:100610004200D6DF0C010C06042754494200D0DF0B
:100620000E01180605274556414CCADF1001240665
:1006300003484C44C5DF1201300607434F4E544572
:100640005854BEDF14013A0602435000B9DF1601C8
:10065000480602445000B4DF18015206044C4153CE
:100660005400AEDF1A015C0602322A00880F991F7F
:100670000895680602322F00959587950895019692
:100680008E7F0895740602424C009A938A9380E20A
:10069000992708958606043F44555000082F092BDA
:1006A00011F09A938A930895960603524F548C0141
:1006B00029913991899199913A932A931A930A939E
:1006C0000895AA06053244524F5089919991899113
:1006D00099910895C4060432445550003FDF3ECF3F
:1006E000D606012B09911991800F911F0895E206FA
:1006F00006494E5645525400809590950895F0064F
:10070000064E454741544500F7DF0196089500071E
:1007100007444E4547415445EFDFF4DEEDDFABDDE6
:10072000010044DFD5DEDECF1007012D09911991BC
:10073000081B190BC80108952A0703414253FDDE27
:1007400015DFB9DDA403E0CF08953A07013D26DFA8
:10075000B2DDAD0390DD000008958DDDFFFF08954B
:100760004C0702553C00BADF19DF00DFA4DDBB03F4
:10077000EBDEDDDEFBCEDADFF9CE6207013CAEDF79
:100780000DDFF4DE98DDC603D2DEF0CECFDFEECE95
:100790007C07034D4158A2DFF2DF8DDDD003D4DEAC
:1007A000C6CE9207034D494E99DFCEDEE8DF83DDEA
:1007B000DA03CADEBCCEA4070657495448494E00A6
:1007C000CDDEB4DF9FDEB2DF83DECDCFB8070655C6
:1007D0004D2F4D4F44007C01299139910991199178
:1007E00040E15527000F111F221F331F551F2E15E3
:1007F0003F05520518F003952E193F094A9589F7D0
:100800003A932A93C8010895CE07054D2F4D4F44C2
:1008100094DEACDE92DE76DE4EDD120475DF72DE33
:100820007BDF56DE6FDE89DEA1DE45DD19045CDE8E
:1008300059DF4EDED0DF4CDE3EDD210485DE64DF95
:1008400083DE08950A08042F4D4F440087DE8EDEB4
:100850007BDEDECF4608034D4F44F8DF68CE5608F6
:10086000012FF4DF71DE63CE600803554D2A8C0141
:1008700089919991809FF00122273327909FF00D55
:10088000211D331D819FF00D211D331D919F200DD2
:10089000311DCF019A938A93C90108956A08012AEC
:1008A00004D045CE9E08024D2A0018DF77DE5EDEBA
:1008B00029DE45DF49DE43DFDADF0ADEFCDC6104E6
:1008C0002BDF0895A608052A2F4D4F441BDEEDDFD0
:1008D000FFDD9ECFC608022A2F00F8DF35DE27CEC7
:1008E00008952BDED2DEC7DC7F006ADFE4DC79040A
:1008F00008951DDEC0DC5F000895D608054445500C
:10090000544809DEB8DCEE061FDE10DFB5CEFC0869
:10091000045049434B000196A9DEFDDDE3DEFDCC2A
:100920001009022B210010DE19DEF7DCDBDE0CDE05
:10093000EACC220905434F554E54FC010191CF01E9
:100940009A938A93802F9927089534090649434F33
:10095000554E5400F2DD0196F7DDFECC4C090448FB
:100960004552450078DED9CC5E0903504144FADF98
:1009700082DC4000B7CE6A09035449424ADE02963F
:10098000CCCC780908404558454355544500C5DC52
:1009900085DE91DCCC04A7DC0895840905434D4F26
:1009A0005645B0DD06C0AEDDC8DF9EDD80DD90DDE2
:1009B00001966EDCD30489CE0895BFDD5CDC610056
:1009C0005ADC7B00FDDE77DCE80455DC5F00D6DD19
:1009D000089598DD07C096DDB0DFEEDF85DD67DDC9
:1009E00077DD019655DCEB0470CE9C090446494C3A
:1009F0004C00AADD87DDA8DD03C070DE58DD01965E
:100A000047DCFD0462CE37DC0900A8DDB8DE33DC4C
:100A10000700B4DD67DE2FDC300064CE2CDC000084
:100A200093DDD9DE91DDEFCFEC09023C23009FDF9F
:100A300001DE69CC2A0A04484F4C4400FBDD6DDC22
:100A400001977BDDF7DD5FDC32CD360A0123CBDD9C
:100A500064DCE4DFF3CF4C0A02235300F8DF6DDDE2
:100A60002ADC3305FBCF0895580A045349474E004A
:100A70007DDD21DC3E05FFDB2D00E0DF08956A0A05
:100A800002233E0054DDD6DD48DC71DF67DD4ECE4B
:100A900054DD38DD54DECBDFE1DF1ADDE9DFF2CFF4
:100AA000800A03484558E7DB10009DDD2CCCA20AE4
:100AB00007444543494D414CDEDB0A0094DD23CC1D
:100AC00021DDD9DB300032DED6DB090047DD57DE21
:100AD000F2DB7205D0DB070029DE2FDDCCDB0A005C
:100AE0004EDE54DD2ADDF4DC3ECEB00A074E554D15
:100AF0004245523F78DD11DC05DDBDDB00002EDD17
:100B00001CDF2CDDDEDCB7DB240021DED4DB8D0531
:100B1000CADF1ADD019618DD019720DDD2DCABDBE0
:100B20002D0015DEEFDC10DDDFDC00DE0DDDDCDCB2
:100B3000D9DDB4DDC0DBBD050197E4DCFEDCE2DC21
:100B4000C0DC51DDEADBBCDFB6DBB605FDDC4BDD2E
:100B5000E4DBA6DEC7DDBCDC01969ADB9E05E7DCA4
:100B6000C3DCA9DBB405D0DDEFDC06C0B1DCB0DC52
:100B7000ACDDABDD80DB0000E0DCAADCA6DDA8DCC0
:100B800032DDC1CBEC0A034B45594BDB94DBC50589
:100B90000895860B05535041434577DD56CBD4DC91
:100BA000B1DC02C0CADC51DB73DBD205C0CC940BD4
:100BB000065350414345530068DDF1CFB00B045458
:100BC000595045009FDC03C0B8DE8ADE3EDB60DBA7
:100BD000E405ADCCBE0B05495459504593DC03C028
:100BE000B9DE7EDE32DB54DBF005A1CCD60B02434E
:100BF000520041DB0D0029DB3EDB0A0026CB68DC1E
:100C000067DC9BDC9ADCFC01EE0FFF1F8591959160
:100C1000992732DD67DD019675DC96DC73DC26DD15
:100C20000895EDDF0895EBDF95DED8CFEE0B022EB1
:100C3000520068DC2DDF4CDC91DC78DDBDDFC2CFFB
:100C40002E0C03552E525EDCF2DE08DF1BDF40DC8B
:100C500085DC6CDDB1DFB6CF420C02552E00E7DE3D
:100C6000FDDE10DF9ADFAECF5A0C012EBCDC55DB67
:100C700002DB0A0093DC1FDB3E06F1CF09DF8DDFCC
:100C8000A1CF6A0C013F49DBF1CFB2DC3CDB66DC73
:100C900039DC53DC10DB87060197AADC12DCF5DCBB
:100CA00056DD09DB66062EDCF0DC58DC0ADC3EDDB6
:100CB0005DDC22DD00DB65060196EADA540608DC1D
:100CC00036DCD9DA000039DC089502DC47DC3CDC94
:100CD00019DC8EDCF6DB42DCF4DB28DD89DCF1DBC1
:100CE000D4DC35DDE8DA750641DCE5DA7D0601960F
:100CF000CFDA690622DC06DC05C0EADB18DC1DDC85
:100D0000019600DC2BDC12DDE3DBE2DB0FCD26DC21
:100D1000DFDB0CCDF7DB32DE76DCFFDAE3DC79DC1F
:100D2000FCDA71DCFADA02DDD3DBAFDF6CDCFBCDA1
:100D3000840C822E28009FDA2900ECDF43CF320D8D
:100D4000812899DA2900E6DFC0CC400D815C5C0087
:100D500092DA0D00DFDFB9CC4C0D0443484152005C
:100D600094DCD8DFE4DBADCB90DCD4DF84DA1F0089
:100D70001BDDF8DDB3DC9BDBB1DCB4DC01967BDA98
:100D80000000E2DB94DB0196DFDB23DEEBCD5A0DC6
:100D900004574F524400BEDFE5DDA0DC88DB9EDC5B
:100DA000A1DC019668DA0000CFDB81DB0196CCDBA9
:100DB000F8DDD8CD900D054E414D453ECBDD5BDADB
:100DC0001F00DCDB8FDC5BCC57DC9CDB10C0C6DBA0
:100DD0008BDB4CDC87DCA1DAC1DB86DB47DC82DC29
:100DE000A3DAA4DC5BDC67DAF70672DBA0CB50DAAF
:100DF000E70641DA00000895A7DB9FDB62DBF8DB42
:100E000082DA9BDB8ADA7EDB02969EDB96DB53DAA4
:100E10001B0793DB89DA2FDA3FFFB0DB65DBBEDB34
:100E20004ADA1607029627DAFFFF04C00296E0DBD3
:100E300074DACADF05C04CDB7ADB86DB029784CB31
:100E40003ADA2507049770DAE1CF42DB70DB7CDB0E
:100E50006EDB029772DBB2DF77CBF3DB5EDACCCFEF
:100E600051DB7CDB35DB70DB79DB98DB24DA410797
:100E700002DA0800EAD9019708DCE7D9FCD90800B2
:100E8000E4D908955ADBE1D969DB11DB01960895B5
:100E900054DB0D9710DA520708970DDA5107F5DB8E
:100EA000F1CFDECF44DB50DB42DB47CB57DB1ADC34
:100EB00055DB14DC73DBFFD96A0767DE3EDBE5DB5D
:100EC00035DCD9D9FF004FDCF6D96807DBDF01C07C
:100ED000DFDFEFCF2CDB42DB29CCB60D06455850C7
:100EE00045435400E3DF8ADB0EDA21CBDC0E0551EB
:100EF0005545525943DDBFD95000D8DF8ADB03DAAC
:100F000016DBB9D900007FDBFEC9EE0E0545525253
:100F10004F5243DE12DD56DEAED93F0096D90DD0DA
:100F200068DEADDAC0EFD6E063C00C0F0C4552525C
:100F30005F48414E444C494E47000C9474022C0FBC
:100F40000A414C4C4F575F424F4F54000C9474026F
:100F50000895B1D9B00753DEFDDC40DEE1DF48C0C3
:100F60004EDEE5CA7ADF9ADBA6D9C407DDD983D97C
:100F7000400004DBEEDF0D20636F6D70696C65204F
:100F80006F6E6C79B0D90895B5DD95D9C80708950D
:100F9000C0CF400F815B6FD9640F47DBB4C96BD9F9
:100FA000640F43DBBAD9D3DB86D9DA073CDE0420F1
:100FB000A66E20001ECEA5DCD9DACBDF0A20756E26
:100FC000646572666C6F77000895940F044556410E
:100FD0004C00CADEB2DA75DA6ED9F20726DBD7DC4E
:100FE000EADFF7CFA4DADBCFCC0F04515549540028
:100FF000A0EFADBFB7E0BEBF3ED9000710DB83D97D
:10100000CADF78DFE6DFFDCFEA0F0127ADDE25DF9F
:1010100052D90B0808957DCF0A100444554D500055
:101020002AD907006FDAE5DD88DA25D905000BDE5D
:10103000B4DD21D90F0066DA80DC1DD9030003DEA0
:1010400027D91C08AADD79DA16D910006FDB13D96D
:101050001000B8DD1DD913086ACA1A100549445595
:101060004D5009D907004EDAC4DD67DA04D905000E
:10107000EADD93DD00D90F0045DA6CDCFCD8030013
:10108000E2DD06D93D0889DD58DAF5D810004EDBDF
:10109000F2D81000A3DDFCD8340849CA5C10022E37
:1010A00053002FDC2FDA03C01FDA35DCDFDDF0D888
:1010B0005408B9DD04203C737000089523DAC1DAC6
:1010C0002CD93BDAF8D86E0838DA78DE0DDA66DA31
:1010D000F2D86E08029728D9F8D86108F9D927CA3A
:1010E00039DCC9D81F004ADA79CD9E1005574F5216
:1010F00044537FDDA6DA11D9D1DADDD886081DDAAE
:101100004CDDEEDF029710D9E0D87C08089571DD40
:101110008ADD1D33323865466F72746820BC77C033
:101120004DB1D0B8EAB4FAB8D5AAA92056302E37B6
:1011300060CDEC1004434F4C440090D89CD8000183
:10114000FCD90E94EB3F97D81E01E7D85CD975D92E
:1011500092D81E01E2D857D970D9B7DA0E94A607F3
:061160003CDA15DC45CF6E
:107FA000FC018991999143E022D041E120C0FC017C
:107FB00089919991DC018991999160E80D901D90CA
:107FC00041E015D032966250C9F7E058F04045E0E4
:107FD0000ED041E10CC0DC0189919991FC0189919D
:107FE000999160E805900D926150E1F7089517B7F7
:0A7FF00010FDFDCF47BFE89508958E
:1011660034110545524153450C94D03F681105573B
:10117600524954450C94D73F7411045245414400DA
:101186000C94EB3F801102312B00019608958C11CF
:1011960002312D0001970895961102322B00029616
:1011A6000895A01102322D0002970895AA11013E5A
:1011B60029913991281739070DC0B41102443E0010
:1011C6000991199129913991E990F990E016F10662
:1011D60028073907C1011CF011F0019708950895F9
:1011E600C21102442B0029913991E990F990499155
:1011F6005991240F351F8E1D9F1D3A932A930895EA
:10120600E81102442D0029913991E990F99049910C
:101216005991421B530BE80AF90A5A934A93C7019C
:101226000895081205414C4C4F540E942B030C9410
:1012360093042A120649414C4C4F54000E9426033F
:101246000C9493043A12012C0E9426030E948D01ED
:101256000E949D020E94D2080E9426030E948301DA
:101266000C94DD010E943B010E940E942709ECCFED
:101276004C12895B434F4D50494C455D0E94060810
:101286000E943C03EFCF781247434F4D50494C45DF
:101296000E9468020E9436030E949D020E948D01F0
:1012A6000E9427090E94D2080E949D020E948D0179
:1012B6000E9427090E94D2080E943C030E948202D3
:1012C60008958E12874C49544552414C0E943B0169
:1012D6003B010E943509B8CF0E943B0122000E94C3
:1012E600CB060E949D020E9461020E943C030E945E
:1012F60082020E949D020E948D010E9427090E947F
:10130600D2080E9448017C090C949702CA128542B1
:101316004547494E0E9426030C948D0114138346BB
:101326004F520E943B0182020E943509F3CF2413DB
:10133600844E455854000E943B0148010E943509DD
:101346000E943C0381CF361385554E54494C0E946A
:101356003B015B010E9435090E943C0375CF4E1389
:1013660085414741494E0E943B0165010E9435096E
:101376000E943C0369CF6613824946000E943B01E6
:101386005B010E9435090E948D090E943B01020003
:1013960055CF0E943B0165010E9435090E948D09C7
:1013A6000E943B0102000C9421097E13865245508F
:1013B600454154000E94B6090E948D090E943C03D3
:1013C6000E94A4020C94DD01B213845448454E00D9
:1013D6000E948D090E943C030E94A4020C94DD0128
:1013E600D013834146540E9497020E94CC090E9462
:1013F6008D090C94A402E81384454C5345000E94C1
:10140600CC090E94A4020C94EB09FE1385574849A7
:101416004C450E94C1090C94A40212148641424F05
:10142600525422000E943B01A9070E9435090E94DE
:101436006F0908952214822422000E943B0111069E
:101446000E9435090E946F0908953C14822E2200DD
:101456000E943B0113060E9435090E946F090895F8
:101466000E949D020E942D070E945B01460A0E946F
:10147600130607207265446566200E94AE020E942C
:101486009D040E94E2050C9497020E949D020E9410
:1014960061020E945B01740A0E94330A0E943103B2
:1014A6000E948D010E9427090E9426030E948D0139
:1014B6000E9431030E9483010E949D020E946102E4
:1014C6000E943C030E9482020E949D020E948D019E
:1014D6000E9427090E94D2080E944801670A0C94BC
:1014E60097020E94110605206E616D650C948907AE
:1014F6000E942D070E944E030E945B01920A0E94E1
:1015060094010E943B0180000E94BE020E945B0182
:101516008E0A0C9473010E943C030C9435090E94B8
:101526007A050E945B01990A0C9469090C94890753
:101536005214054F564552540E9431030E948D01A4
:101546000E9421030C9483013815C13B0E943B0184
:1015560008950E9427090E94CB070C949F0A5015F4
:10156600015D0E943B01F6140E9415030C94830151
:101576006615013A0E94B4060E94480A0C94B40A01
:10158600781509494D4D4544494154450E943B0152
:1015960080000E9431030E948D010E9494010E94E6
:1015A600C6020E9431030E948D010C94DD0188154C
:1015B60006435245415445000E94B4060E94480A1B
:1015C6000E949F0A0E943B01E0020E9435090E9488
:1015D6002B030E948D010C942709B61508434F4E24
:1015E6005354414E54000E94B4060E94480A0E9479
:1015F6009F0A0E943B01E0020E9435090C942709CC
:10160600E215085641524941424C45000E94DF0A04
:101616000E943B0102000C94180908160327434E4A
:101626000E94B4060E942D070E946E030E945B0171
:101636000B080E94970208950C9489072216084FFA
:1016460050454E5F494E54000E943B015F000E9488
:1016560061020E943B0180000E94C6020E943B017B
:101666005F000E9457020E943B0164000E948202B2
:101676000E9448013B0B0E943B015F000E946102F1
:101686000E943B017F000E94BE020E943B015F0058
:061696000E9457020895B6
:00000001FF
